:060000000A128A110C280F
:10000800FE00030EF1000A08F2000A128A11652C9C
:100018000A128A110F2883120313B101B201B30126
:10002800B401B50183010A128A113D2AFF1B242855
:1000380083137F1883170008840A0319FF0A08002E
:100048007F087F398A000408840A0319FF0A82009E
:100200000D34203449346E346734723465347334B9
:100210006534203475346E34203463346134723480
:100220006134633474346534723420346434653436
:100230002034413453344334493449342034703405
:1002400061347234613420346D346F3473347434F7
:10025000723461347234203465346E342034653441
:100260006C342034703475346534723474346F34C3
:10027000203442343A34203420340D3400340D34E8
:1002800020342D342D342D342D342D342D342D3473
:100290002D342D342D342D342D342D342D342D3456
:1002A0002D342D342D342D342D342D342D342D3446
:1002B0002D342D342D342D342D342D342D342D3436
:1002C0002D342D342D342D342D342D342D342D3426
:1002D0002D342D342D342D342D342D342D34203423
:1002E00020340D3400340D3420342D342D342D348D
:1002F0002D342D342D342D342D342D342D342D34F6
:100300002D342D342D342D342D342D342D342D34E5
:100310002D342D342D342D342D342D342D342D34D5
:100320002D342D342D342D342D342D342D342D34C5
:100330002D342D342D342D342D342D342D342D34B5
:100340002D342D342D3420340D3400340D3420342C
:1003500053346534613420346234693465346E3426
:10036000763465346E34693464346F342C3420341C
:1003700071347534653420346134633463346934E2
:100380006F346E34203464346534733465346134CE
:1003900020347234653461346C3469347A346134B5
:1003A00072343F3420340D340A3400340D34203498
:1003B00045346C342034763461346C346F347234A8
:1003C0002034643465346C34203470346F347434C5
:1003D00065346E34633469346F346D346534743429
:1003E00072346F342034653473343A3420340D342D
:1003F0000A34003420343134293420344C34653408
:1004000065347234203450346F34743465346E344F
:10041000633469346F346D346534743472346F34DA
:1004200020340D340A34003420343234293420345A
:1004300045346E3476346934613472342034413456
:10044000533443344934493420340D340A340034AD
:100450000D3420344C346934733474346F342034A4
:100460000D340A34003420344534723472346F341D
:10047000723420340D340A3400340A128A11E8230D
:100480000A128A110A128A1185240A128A11831209
:1004900003139F184C2A4D2A4E2A9F147330F400E0
:1004A0008130F5000A128A1116240A128A11A63028
:1004B000F4008130F5000A128A1116240A128A11FA
:1004C000FA30F4008130F5000A128A1116240A125B
:1004D0008A111430F4008230F5000A128A111624B1
:1004E0000A128A113F30F4008130F5000A128A1195
:1004F00016240A128A1183120313B401B40AF12AD2
:100500008C1E832A842A802A3108B200E12AD63040
:10051000F4008130F5000A128A1116240A128A1199
:10052000831203133308AF00B0012F08A90030086D
:10053000AA000A30AB000030AC0035300A128A1134
:1005400041240A128A1135300A128A119D240A1296
:100550008A112830F4008230F5000A128A1116241C
:100560000A128A1183120313B401F12A0030F40035
:100570008130F5000A128A1116240A128A11831298
:1005800003138C1EC42AC52ABF2A310886003108ED
:100590000A128A119D240A128A112830F40082302E
:1005A000F5000A128A1116240A128A11B22A33306F
:1005B000F4008230F5000A128A1116240A128A11F8
:1005C000F12A3208AF00B0013008003A0319E92AD5
:1005D000D72A2F08313A0319872A033A0319B62A72
:1005E000D72A831203133408031DF72AF82A802A16
:1005F000472A0A128A110C2883120313A800210823
:10060000A6002008A5002308F4002208F30026080D
:10061000F6002508F5000A128A116A230A128A11C7
:10062000740883120313A6007308A5000130A40008
:100630002408A80725082604031D1F2B202B032BA5
:1006400028088400831380010130A8022308F400E5
:100650002208F3002108F6002008F5000A128A118A
:10066000AE230A128A11730883120313A70023080A
:10067000F4002208F3002108F6002008F5000A1211
:100680008A116A230A128A11740883120313A100C3
:100690007308A0000A302702031C4F2B502B542B49
:1006A0000730A4002408A7073030A4002408A707B7
:1006B000280884002708831380000130A80220083E
:1006C0002104031D642B652B262B0130A400240874
:1006D000A8070800F801F901730874040319712BC5
:1006E000722BA92BFA01FA0A802B01300310F30DAB
:1006F000F40DFF3E031D762B0130F7007708FA0753
:10070000F41F832B842B752B01300310F80DF90D8A
:10071000FF3E031D852B74087602031D912B730881
:100720007502031C942B952B9C2B7308F5027408FF
:10073000031CF603F602781401300310F40CF30CDA
:10074000FF3E031D9D2B0130FA02031DA82BA92B90
:10075000842B7908F4007808F30008007308740407
:100760000319B32BB42BE32BF801F80AC22B013089
:100770000310F30DF40DFF3E031DB82B0130F700FD
:100780007708F807F41FC52BC62BB72B7408760221
:10079000031DCC2B73087502031CCF2BD02BD62B3B
:1007A0007308F5027408031CF603F6020130031007
:1007B000F40CF30CFF3E031DD72B0130F802031D90
:1007C000E22BE32BC62B7608F4007508F300080033
:1007D00001308316031788008901831603138601ED
:1007E0008312031385018601831603130F088F39C3
:1007F00040388F000F149F131F129F128312031390
:100800001F083F3940389F00C3309F051F14033035
:10081000F300F30B092C0C2C8B170B178316031307
:100820000C178C16831203130C130800F7012D2CE0
:1008300077087407840075080318750AFF000A1208
:100840008A111A200A128A110A128A119D240A1288
:100850008A110130F6007608F707770874078400DC
:1008600075080318750A83120313FF000A128A1110
:100870001A200A128A11003A031D3F2C402C182C12
:10088000080083120313AE00AA1F472C482C562CD5
:100890002E0884002D30831380000130AD002D0818
:1008A000AE07A909AA09A90A0319AA0A2A08A100D8
:1008B0002908A0002C08A3002B08A2002E080A1269
:1008C0008A11FC220A128A110800831203138C1E5B
:1008D0006A2C6B2C6D2C1A08B1000C1F702C712C1B
:1008E0007E2C1F0CF000700C0F39003A031D792C80
:1008F0007A2C7C2C1E08B3000C138C1272088A0010
:10090000710E8300FE0E7E0E09001930831603134C
:1009100099009A0118158316031787158316031378
:1009200018128312031398178316031318139816BB
:100930008312031318160C120800F3008316031316
:10094000981CA32CA42C9E2C7308831203139900CB
:0209500008009D
:08400000FF3FFF3FFF3FFF3FC0
:04400E00D420FF3F7C
:00000001FF
